{
  "contractName": "Voting",
  "abi": [
    {
      "inputs": [],
      "stateMutability": "nonpayable",
      "type": "constructor"
    },
    {
      "anonymous": false,
      "inputs": [
        {
          "indexed": false,
          "internalType": "uint256",
          "name": "candidateId",
          "type": "uint256"
        },
        {
          "indexed": false,
          "internalType": "uint256",
          "name": "index",
          "type": "uint256"
        },
        {
          "indexed": false,
          "internalType": "string",
          "name": "trackingId",
          "type": "string"
        },
        {
          "indexed": false,
          "internalType": "bytes32",
          "name": "blockHash",
          "type": "bytes32"
        }
      ],
      "name": "BlockAdded",
      "type": "event"
    },
    {
      "anonymous": false,
      "inputs": [
        {
          "indexed": false,
          "internalType": "string",
          "name": "trackingId",
          "type": "string"
        }
      ],
      "name": "DebugTrackingID",
      "type": "event"
    },
    {
      "inputs": [
        {
          "internalType": "uint256",
          "name": "",
          "type": "uint256"
        },
        {
          "internalType": "uint256",
          "name": "",
          "type": "uint256"
        }
      ],
      "name": "candidateChains",
      "outputs": [
        {
          "internalType": "uint256",
          "name": "index",
          "type": "uint256"
        },
        {
          "internalType": "string",
          "name": "timestamp",
          "type": "string"
        },
        {
          "internalType": "string",
          "name": "trackingId",
          "type": "string"
        },
        {
          "internalType": "bytes32",
          "name": "previousHash",
          "type": "bytes32"
        },
        {
          "internalType": "bytes32",
          "name": "blockHash",
          "type": "bytes32"
        }
      ],
      "stateMutability": "view",
      "type": "function",
      "constant": true
    },
    {
      "inputs": [
        {
          "internalType": "string",
          "name": "",
          "type": "string"
        }
      ],
      "name": "hasVoted",
      "outputs": [
        {
          "internalType": "bool",
          "name": "",
          "type": "bool"
        }
      ],
      "stateMutability": "view",
      "type": "function",
      "constant": true
    },
    {
      "inputs": [
        {
          "internalType": "uint256",
          "name": "candidateId",
          "type": "uint256"
        },
        {
          "internalType": "string",
          "name": "timestamp",
          "type": "string"
        },
        {
          "internalType": "string",
          "name": "trackingId",
          "type": "string"
        }
      ],
      "name": "addBlock",
      "outputs": [],
      "stateMutability": "nonpayable",
      "type": "function"
    },
    {
      "inputs": [
        {
          "internalType": "uint256",
          "name": "candidateId",
          "type": "uint256"
        },
        {
          "internalType": "uint256",
          "name": "index",
          "type": "uint256"
        }
      ],
      "name": "getBlock",
      "outputs": [
        {
          "internalType": "uint256",
          "name": "blockIndex",
          "type": "uint256"
        },
        {
          "internalType": "string",
          "name": "blockTimestamp",
          "type": "string"
        },
        {
          "internalType": "string",
          "name": "blockTrackingId",
          "type": "string"
        },
        {
          "internalType": "bytes32",
          "name": "blockPrevHash",
          "type": "bytes32"
        },
        {
          "internalType": "bytes32",
          "name": "blockHash",
          "type": "bytes32"
        }
      ],
      "stateMutability": "view",
      "type": "function",
      "constant": true
    },
    {
      "inputs": [
        {
          "internalType": "uint256",
          "name": "candidateId",
          "type": "uint256"
        }
      ],
      "name": "getChainLength",
      "outputs": [
        {
          "internalType": "uint256",
          "name": "",
          "type": "uint256"
        }
      ],
      "stateMutability": "view",
      "type": "function",
      "constant": true
    },
    {
      "inputs": [
        {
          "internalType": "string",
          "name": "trackingId",
          "type": "string"
        }
      ],
      "name": "hasVoterVoted",
      "outputs": [
        {
          "internalType": "bool",
          "name": "",
          "type": "bool"
        }
      ],
      "stateMutability": "view",
      "type": "function",
      "constant": true
    }
  ],
  "bytecode": "0x60806040523480156200001157600080fd5b506000600190505b600381116200015b576000808281526020019081526020016000206040518060a00160405280600081526020016040518060400160405280600781526020017f47454e455349530000000000000000000000000000000000000000000000000081525081526020016040518060400160405280600181526020017f300000000000000000000000000000000000000000000000000000000000000081525081526020016000801b81526020016000801b8152509080600181540180825580915050600190039060005260206000209060050201600090919091909150600082015181600001556020820151816001019081620001169190620003dc565b5060408201518160020190816200012e9190620003dc565b506060820151816003015560808201518160040155505080806200015290620004f2565b91505062000019565b506200053f565b600081519050919050565b7f4e487b7100000000000000000000000000000000000000000000000000000000600052604160045260246000fd5b7f4e487b7100000000000000000000000000000000000000000000000000000000600052602260045260246000fd5b60006002820490506001821680620001e457607f821691505b602082108103620001fa57620001f96200019c565b5b50919050565b60008190508160005260206000209050919050565b60006020601f8301049050919050565b600082821b905092915050565b600060088302620002647fffffffffffffffffffffffffffffffffffffffffffffffffffffffffffffffff8262000225565b62000270868362000225565b95508019841693508086168417925050509392505050565b6000819050919050565b6000819050919050565b6000620002bd620002b7620002b18462000288565b62000292565b62000288565b9050919050565b6000819050919050565b620002d9836200029c565b620002f1620002e882620002c4565b84845462000232565b825550505050565b600090565b62000308620002f9565b62000315818484620002ce565b505050565b5b818110156200033d5762000331600082620002fe565b6001810190506200031b565b5050565b601f8211156200038c57620003568162000200565b620003618462000215565b8101602085101562000371578190505b62000389620003808562000215565b8301826200031a565b50505b505050565b600082821c905092915050565b6000620003b16000198460080262000391565b1980831691505092915050565b6000620003cc83836200039e565b9150826002028217905092915050565b620003e78262000162565b67ffffffffffffffff8111156200040357620004026200016d565b5b6200040f8254620001cb565b6200041c82828562000341565b600060209050601f8311600181146200045457600084156200043f578287015190505b6200044b8582620003be565b865550620004bb565b601f198416620004648662000200565b60005b828110156200048e5784890151825560018201915060208501945060208101905062000467565b86831015620004ae5784890151620004aa601f8916826200039e565b8355505b6001600288020188555050505b505050505050565b7f4e487b7100000000000000000000000000000000000000000000000000000000600052601160045260246000fd5b6000620004ff8262000288565b91507fffffffffffffffffffffffffffffffffffffffffffffffffffffffffffffffff8203620005345762000533620004c3565b5b600182019050919050565b61125a806200054f6000396000f3fe608060405234801561001057600080fd5b50600436106100625760003560e01c80631984f9141461006757806339bfeae31461009b57806345dbbf2c146100cb5780634a44bdb8146100fb57806397c86e071461012f578063d69630661461015f575b600080fd5b610081600480360381019061007c9190610821565b61017b565b604051610092959493929190610919565b60405180910390f35b6100b560048036038101906100b09190610aaf565b6102de565b6040516100c29190610b13565b60405180910390f35b6100e560048036038101906100e09190610b2e565b610314565b6040516100f29190610b5b565b60405180910390f35b61011560048036038101906101109190610821565b610333565b604051610126959493929190610919565b60405180910390f35b61014960048036038101906101449190610aaf565b61050c565b6040516101569190610b13565b60405180910390f35b61017960048036038101906101749190610b76565b610541565b005b6000602052816000526040600020818154811061019757600080fd5b9060005260206000209060050201600091509150508060000154908060010180546101c190610c30565b80601f01602080910402602001604051908101604052809291908181526020018280546101ed90610c30565b801561023a5780601f1061020f5761010080835404028352916020019161023a565b820191906000526020600020905b81548152906001019060200180831161021d57829003601f168201915b50505050509080600201805461024f90610c30565b80601f016020809104026020016040519081016040528092919081815260200182805461027b90610c30565b80156102c85780601f1061029d576101008083540402835291602001916102c8565b820191906000526020600020905b8154815290600101906020018083116102ab57829003601f168201915b5050505050908060030154908060040154905085565b6001818051602081018201805184825260208301602085012081835280955050505050506000915054906101000a900460ff1681565b6000806000838152602001908152602001600020805490509050919050565b6000606080600080600080888152602001908152602001600020805490508610610392576040517f08c379a000000000000000000000000000000000000000000000000000000000815260040161038990610cad565b60405180910390fd5b600080600089815260200190815260200160002087815481106103b8576103b7610ccd565b5b9060005260206000209060050201905080600001548160010182600201836003015484600401548380546103eb90610c30565b80601f016020809104026020016040519081016040528092919081815260200182805461041790610c30565b80156104645780601f1061043957610100808354040283529160200191610464565b820191906000526020600020905b81548152906001019060200180831161044757829003601f168201915b5050505050935082805461047790610c30565b80601f01602080910402602001604051908101604052809291908181526020018280546104a390610c30565b80156104f05780601f106104c5576101008083540402835291602001916104f0565b820191906000526020600020905b8154815290600101906020018083116104d357829003601f168201915b5050505050925095509550955095509550509295509295909350565b600060018260405161051e9190610d38565b908152602001604051809103902060009054906101000a900460ff169050919050565b60018310158015610553575060038311155b610592576040517f08c379a000000000000000000000000000000000000000000000000000000000815260040161058990610d9b565b60405180910390fd5b6001816040516105a29190610d38565b908152602001604051809103902060009054906101000a900460ff16156105fe576040517f08c379a00000000000000000000000000000000000000000000000000000000081526004016105f590610e2d565b60405180910390fd5b60008060008581526020019081526020016000209050600081805490509050600082600184805490506106319190610e7c565b8154811061064257610641610ccd565b5b906000526020600020906005020160040154905060008286868460405160200161066f9493929190610ef2565b604051602081830303815290604052805190602001209050836040518060a001604052808581526020018881526020018781526020018481526020018381525090806001815401808255809150506001900390600052602060002090600502016000909190919091506000820151816000015560208201518160010190816106f791906110e4565b50604082015181600201908161070d91906110e4565b5060608201518160030155608082015181600401555050600180866040516107359190610d38565b908152602001604051809103902060006101000a81548160ff0219169083151502179055507f0d829c13fc9505da4a6a9621c127c874344b24dceef65130ea4425e8093ca4728784878460405161078f94939291906111b6565b60405180910390a17f45b032f7a1b8ff5184bd5a5b15cb5acbd9092bc750d1aeed70294d88f09a8cd4856040516107c69190611202565b60405180910390a150505050505050565b6000604051905090565b600080fd5b600080fd5b6000819050919050565b6107fe816107eb565b811461080957600080fd5b50565b60008135905061081b816107f5565b92915050565b60008060408385031215610838576108376107e1565b5b60006108468582860161080c565b92505060206108578582860161080c565b9150509250929050565b61086a816107eb565b82525050565b600081519050919050565b600082825260208201905092915050565b60005b838110156108aa57808201518184015260208101905061088f565b60008484015250505050565b6000601f19601f8301169050919050565b60006108d282610870565b6108dc818561087b565b93506108ec81856020860161088c565b6108f5816108b6565b840191505092915050565b6000819050919050565b61091381610900565b82525050565b600060a08201905061092e6000830188610861565b818103602083015261094081876108c7565b9050818103604083015261095481866108c7565b9050610963606083018561090a565b610970608083018461090a565b9695505050505050565b600080fd5b600080fd5b7f4e487b7100000000000000000000000000000000000000000000000000000000600052604160045260246000fd5b6109bc826108b6565b810181811067ffffffffffffffff821117156109db576109da610984565b5b80604052505050565b60006109ee6107d7565b90506109fa82826109b3565b919050565b600067ffffffffffffffff821115610a1a57610a19610984565b5b610a23826108b6565b9050602081019050919050565b82818337600083830152505050565b6000610a52610a4d846109ff565b6109e4565b905082815260208101848484011115610a6e57610a6d61097f565b5b610a79848285610a30565b509392505050565b600082601f830112610a9657610a9561097a565b5b8135610aa6848260208601610a3f565b91505092915050565b600060208284031215610ac557610ac46107e1565b5b600082013567ffffffffffffffff811115610ae357610ae26107e6565b5b610aef84828501610a81565b91505092915050565b60008115159050919050565b610b0d81610af8565b82525050565b6000602082019050610b286000830184610b04565b92915050565b600060208284031215610b4457610b436107e1565b5b6000610b528482850161080c565b91505092915050565b6000602082019050610b706000830184610861565b92915050565b600080600060608486031215610b8f57610b8e6107e1565b5b6000610b9d8682870161080c565b935050602084013567ffffffffffffffff811115610bbe57610bbd6107e6565b5b610bca86828701610a81565b925050604084013567ffffffffffffffff811115610beb57610bea6107e6565b5b610bf786828701610a81565b9150509250925092565b7f4e487b7100000000000000000000000000000000000000000000000000000000600052602260045260246000fd5b60006002820490506001821680610c4857607f821691505b602082108103610c5b57610c5a610c01565b5b50919050565b7f426c6f636b20646f6573206e6f74206578697374000000000000000000000000600082015250565b6000610c9760148361087b565b9150610ca282610c61565b602082019050919050565b60006020820190508181036000830152610cc681610c8a565b9050919050565b7f4e487b7100000000000000000000000000000000000000000000000000000000600052603260045260246000fd5b600081905092915050565b6000610d1282610870565b610d1c8185610cfc565b9350610d2c81856020860161088c565b80840191505092915050565b6000610d448284610d07565b915081905092915050565b7f496e76616c69642063616e646964617465204944000000000000000000000000600082015250565b6000610d8560148361087b565b9150610d9082610d4f565b602082019050919050565b60006020820190508181036000830152610db481610d78565b9050919050565b7f566f7465722068617320616c7265616479206361737420746865697220766f7460008201527f6521000000000000000000000000000000000000000000000000000000000000602082015250565b6000610e1760228361087b565b9150610e2282610dbb565b604082019050919050565b60006020820190508181036000830152610e4681610e0a565b9050919050565b7f4e487b7100000000000000000000000000000000000000000000000000000000600052601160045260246000fd5b6000610e87826107eb565b9150610e92836107eb565b9250828203905081811115610eaa57610ea9610e4d565b5b92915050565b6000819050919050565b610ecb610ec6826107eb565b610eb0565b82525050565b6000819050919050565b610eec610ee782610900565b610ed1565b82525050565b6000610efe8287610eba565b602082019150610f0e8286610d07565b9150610f1a8285610d07565b9150610f268284610edb565b60208201915081905095945050505050565b60008190508160005260206000209050919050565b60006020601f8301049050919050565b600082821b905092915050565b600060088302610f9a7fffffffffffffffffffffffffffffffffffffffffffffffffffffffffffffffff82610f5d565b610fa48683610f5d565b95508019841693508086168417925050509392505050565b6000819050919050565b6000610fe1610fdc610fd7846107eb565b610fbc565b6107eb565b9050919050565b6000819050919050565b610ffb83610fc6565b61100f61100782610fe8565b848454610f6a565b825550505050565b600090565b611024611017565b61102f818484610ff2565b505050565b5b818110156110535761104860008261101c565b600181019050611035565b5050565b601f8211156110985761106981610f38565b61107284610f4d565b81016020851015611081578190505b61109561108d85610f4d565b830182611034565b50505b505050565b600082821c905092915050565b60006110bb6000198460080261109d565b1980831691505092915050565b60006110d483836110aa565b9150826002028217905092915050565b6110ed82610870565b67ffffffffffffffff81111561110657611105610984565b5b6111108254610c30565b61111b828285611057565b600060209050601f83116001811461114e576000841561113c578287015190505b61114685826110c8565b8655506111ae565b601f19841661115c86610f38565b60005b828110156111845784890151825560018201915060208501945060208101905061115f565b868310156111a1578489015161119d601f8916826110aa565b8355505b6001600288020188555050505b505050505050565b60006080820190506111cb6000830187610861565b6111d86020830186610861565b81810360408301526111ea81856108c7565b90506111f9606083018461090a565b95945050505050565b6000602082019050818103600083015261121c81846108c7565b90509291505056fea2646970667358221220a8dc702a3ee45b7a06c7c9e175b029b73d9ff11a3620de1b61d0df282d86857a64736f6c63430008130033",
  "immutableReferences": {},
  "source": "// SPDX-License-Identifier: MIT\r\npragma solidity ^0.8.0;\r\n\r\ncontract Voting {\r\n    struct Block {\r\n        uint256 index;\r\n        string timestamp;\r\n        string trackingId;\r\n        bytes32 previousHash;\r\n        bytes32 blockHash;\r\n    }\r\n\r\n    mapping(uint256 => Block[]) public candidateChains;\r\n    mapping(string => bool) public hasVoted;\r\n\r\n    event BlockAdded(uint256 candidateId, uint256 index, string trackingId, bytes32 blockHash);\r\n    event DebugTrackingID(string trackingId);  //  Debug event instead of console.log\r\n\r\n    constructor() {\r\n        for (uint256 i = 1; i <= 3; i++) {\r\n            candidateChains[i].push(Block(0, \"GENESIS\", \"0\", bytes32(0), bytes32(0)));\r\n        }\r\n    }\r\n\r\n    function addBlock(uint256 candidateId, string memory timestamp, string memory trackingId) public {\r\n        require(candidateId >= 1 && candidateId <= 3, \"Invalid candidate ID\");\r\n        require(!hasVoted[trackingId], \"Voter has already cast their vote!\");\r\n\r\n        Block[] storage chain = candidateChains[candidateId];\r\n        uint256 index = chain.length;\r\n        bytes32 previousHash = chain[chain.length - 1].blockHash;\r\n        bytes32 blockHash = keccak256(abi.encodePacked(index, timestamp, trackingId, previousHash));\r\n\r\n        chain.push(Block(index, timestamp, trackingId, previousHash, blockHash));\r\n        hasVoted[trackingId] = true;\r\n\r\n        emit BlockAdded(candidateId, index, trackingId, blockHash);\r\n        emit DebugTrackingID(trackingId);  //  Emit tracking ID for debugging\r\n    }\r\n\r\n    function getBlock(uint256 candidateId, uint256 index) public view returns (\r\n        uint256 blockIndex,\r\n        string memory blockTimestamp,\r\n        string memory blockTrackingId,\r\n        bytes32 blockPrevHash,\r\n        bytes32 blockHash\r\n    ) {\r\n        require(index < candidateChains[candidateId].length, \"Block does not exist\");\r\n        Block storage b = candidateChains[candidateId][index];\r\n        return (b.index, b.timestamp, b.trackingId, b.previousHash, b.blockHash);\r\n    }\r\n\r\n\r\n    function getChainLength(uint256 candidateId) public view returns (uint256) {\r\n        return candidateChains[candidateId].length;\r\n    }\r\n\r\n    function hasVoterVoted(string memory trackingId) public view returns (bool) {\r\n        return hasVoted[trackingId];\r\n    }\r\n}\r\n",
  "sourcePath": "C:\\Users\\WELCOME\\Desktop\\project\\eth-voting\\contracts\\solidity.sol",
  "compiler": {
    "name": "solc",
    "version": "0.8.19+commit.7dd6d404.Emscripten.clang"
  },
  "schemaVersion": "3.4.16",
  "updatedAt": "2025-03-18T17:29:58.796Z",
  "networkType": "ethereum",
  "devdoc": {
    "kind": "dev",
    "methods": {},
    "version": 1
  },
  "userdoc": {
    "kind": "user",
    "methods": {},
    "version": 1
  }
}